:100000001AC029C0B6C127C026C025C024C023C03D
:1000100022C021C020C00000010309132441699AB5
:10002000CBF0FFF0CB9A69412413090301000000D3
:100030000D261316250B11271FBFCFE5D0E0DEBF1D
:10004000CDBF20E0A0E4B0E001C01D93A534B2070D
:10005000E1F749D1C0C1D4CF5EEFE62FF0E0E05D1B
:10006000FF4B11B912B9581728F05150D0F711B9F8
:1000700012B908954081642F677061B9469546951D
:100080004695477042B9F1CF3F93CF93DF93C6E1D6
:10009000D0E435E1315039F160E08881DDDF61E0A5
:1000A000CE5FDF4F8881C250D040D6DF62E0CC5FA8
:1000B000DF4F8881C450D040CFDF63E0CA5FDF4F9D
:1000C0008881C650D040C8DF64E0C85FDF4F8881B8
:1000D000C850D040C1DF65E0C65FDF4F8881CA509D
:1000E000D040BADFD7CFCF5FDF4F40E4C232D40772
:1000F00081F6DF91CF913F9108953F93CF93DF93A6
:10010000C6E1D0E435E1315039F165E08881A4DF02
:1001100064E0CE5FDF4F8881C250D0409DDF63E056
:10012000CC5FDF4F8881C450D04096DF62E0CA5F69
:10013000DF4F8881C650D0408FDF61E0C85FDF4F5E
:100140008881C850D04088DF60E0C65FDF4F88817B
:10015000CA50D04081DFD7CFCF5FDF4F40E4C232FB
:10016000D40781F6DF91CF913F91089560E070E070
:1001700011B912B9E62FF72FE05DFF4B4081542FE4
:10018000577051B9469546954695477042B96F5F8D
:100190007F4F6630710761F711B912B908952F9337
:1001A0003F93CF93DF9300D000D000D0CDB7DEB720
:1001B000CA5FDF4F98838A93C550D040482F592F8C
:1001C0004D5F5F4FCC5FDF4F58834A93C350D040A1
:1001D000CB5FDF4FE991F881C650D0404191CA5FB3
:1001E000DF4FF883EA93C550D040CE5FDF4F48839E
:1001F000C250D04054E0CF5FDF4F5883C150D04051
:10020000CE5FDF4F4881C250D040437049F520EAAD
:100210003FE0ACDF2150310BE1F740EA5FE070E0F6
:10022000672F6A95F1F74150510BD1F7CE5FDF4F41
:100230006881C250D04066956695CE5FDF4F688377
:10024000C250D040CF5FDF4F7881C150D040715055
:10025000CF5FDF4F7883C150D0407113D1CF28C01A
:10026000413081F420EC3DE581DF2150310BE1F795
:1002700040EA5FE070E0672F6A95F1F74150510B5B
:10028000D1F7D4CF423051F440E45FE170E0672F02
:100290006A95F1F74150510BD1F7C8CF40EC5DE5BD
:1002A00070E0672F6A95F1F74150510BD1F7BECF3F
:1002B000CD5FDF4FE991F881C450D040CB5FDF4F75
:1002C00049915881C650D040E417F50709F080CF16
:1002D0000F910F910F910F910F910F91DF91CF918E
:1002E0003F912F91089548ED4CBF16BF1B9A839AFA
:1002F00041E042BB789444A1411303C0C5DEFDDE5A
:10030000FACF44A1413021F48AED93E448DFF3CFE2
:1003100044A1423049F562A173A180A191A1C82FE7
:10032000D92FC55CD74ED1A9C0A9862F972F41D010
:100330008C0F9D1F98278927982793A982A9C82FDA
:10034000D92F1C171D0724F411DFC150D10BF9CF91
:1003500042A153A172E3141715076CF6672F6A9533
:10036000F1F74150510BF7CF44A1433021F214A9CA
:10037000C2CF1F930F930FB70F9310E04F935F936C
:100380006F937F93039903C044A14F5F44A940EA50
:100390005FE070E0672F6A95F1F74150510BD1F79C
:1003A0007F916F915F914F910F910FBF0F911F91AF
:1003B00018950027552704C0080F591F880F991F4B
:1003C0008050904029F076956795B0F37107B1F7AA
:0A03D000802F952F0895F894FFCFB9
:0303DA008095C04B
:00000001FF
